:100000000C943E000C945B000C945B000C945B0021
:100010000C945B000C945B000C945B000C945B00F4
:100020000C945B000C945B000C945B000C945B00E4
:100030000C945B000C945B000C94BA000C945B0075
:100040000C945B000C945B000C945B000C945B00C4
:100050000C945B000C945B000C945B000C945B00B4
:100060000C945B000C945B004101450149014D017A
:100070005101550159015D016101650111241FBE46
:10008000CFEFD8E0DEBFCDBF11E0A0E0B1E0EEE5FC
:10009000F3E002C005900D92A830B107D9F721E036
:1000A000A8E0B1E001C01D92AE30B207E1F70E94B6
:1000B000A3000C94AD010C940000299A299808958E
:1000C00082E084BD84E085BD8DE787BDEEE6F0E08B
:1000D00080818260808378940895FF920F931F93AC
:1000E000CF93DF93F82E062F289A0E945D000E947E
:1000F0005D00C0E0D0E010E0C8010C2E02C0959574
:1001000087950A94E2F780FF02C0289801C0289AD8
:100110000E945D002196C730D10571F7C0E0FC1246
:1001200004C0289A0E945D0003C028980E945D00C8
:10013000CF5FC330A1F72A9A2A98DF91CF911F9100
:100140000F91FF90089584B1876084B928988AB18F
:10015000837E8AB98BB18C618BB989B180930C0194
:1001600080930D010E94600060910B018EE70E9458
:100170006D00FFCF1F920F920FB60F9211242F9395
:100180003F934F935F936F937F938F939F93AF931F
:10019000BF93CF93DF93EF93FF9389B180930C01CB
:1001A00082FD09C090910D0192FF05C090910B0155
:1001B0009F5F90930B0183FD07C090910D0193FF0A
:1001C00003C091E090930B0184FD09C090910D0153
:1001D00094FF05C090910B01915090930B01809377
:1001E0000D0180910801909109018A3F910534F435
:1001F0000196909309018093080109C010920901AA
:100200001092080180910A018F5F80930A0180910A
:100210000B01823020F48F5F80930B0102C010929B
:100220000B0120910A0130E0E0E0F1E0CAE0D0E00B
:10023000C901BE010E947F0195838483CB01BE0169
:100240000E947F0193838283C90164E670E00E946B
:100250007F01CB01BE010E947F0191838083809149
:100260000B01E82FF0E0EE0FFF1FE050FF4F019071
:10027000F081E02DEA30F10560F5EC5CFF4F0C9465
:1002800093016EE70E946D0027C060E30E946D003D
:1002900023C06DE60E946D001FC069E70E946D00DB
:1002A0001BC063E30E946D0017C06BE50E946D00E8
:1002B00013C06FE10E946D000FC060E70E946D00E7
:1002C0000BC06FE70E946D0007C063E70E946D00DE
:1002D00003C06EE70E946D00FF91EF91DF91CF9117
:1002E000BF91AF919F918F917F916F915F914F914E
:1002F0003F912F910F900FBE0F901F90189597FB75
:10030000072E16F4009407D077FD09D00E949901BA
:1003100007FC05D03EF4909581959F4F0895709508
:1003200061957F4F0895EE0FFF1F0590F491E02D2A
:100330000994AA1BBB1B51E107C0AA1FBB1FA6172C
:10034000B70710F0A61BB70B881F991F5A95A9F77E
:0E03500080959095BC01CD010895F894FFCFE3
:08035E00010000000000000096
:00000001FF
